{"contracts/ZablonFlashBot.sol":{"ZablonFlashBot":{"abi":[{"inputs":[{"internalType":"address","name":"provider","type":"address"}],"stateMutability":"nonpayable","type":"constructor"},{"inputs":[],"name":"InvalidInitiator","type":"error"},{"inputs":[],"name":"NoProfitMade","type":"error"},{"inputs":[],"name":"NotOwner","type":"error"},{"inputs":[],"name":"OnlyAavePool","type":"error"},{"anonymous":false,"inputs":[{"indexed":false,"internalType":"uint256","name":"profit","type":"uint256"},{"indexed":false,"internalType":"address","name":"router1","type":"address"},{"indexed":false,"internalType":"address","name":"router2","type":"address"}],"name":"ArbitrageExecuted","type":"event"},{"inputs":[],"name":"ADDRESSES_PROVIDER","outputs":[{"internalType":"contract IPoolAddressesProvider","name":"","type":"address"}],"stateMutability":"view","type":"function"},{"inputs":[],"name":"POOL","outputs":[{"internalType":"contract IPool","name":"","type":"address"}],"stateMutability":"view","type":"function"},{"inputs":[{"internalType":"address","name":"asset","type":"address"},{"internalType":"uint256","name":"amount","type":"uint256"},{"internalType":"uint256","name":"premium","type":"uint256"},{"internalType":"address","name":"initiator","type":"address"},{"internalType":"bytes","name":"params","type":"bytes"}],"name":"executeOperation","outputs":[{"internalType":"bool","name":"","type":"bool"}],"stateMutability":"nonpayable","type":"function"},{"inputs":[],"name":"owner","outputs":[{"internalType":"address","name":"","type":"address"}],"stateMutability":"view","type":"function"},{"inputs":[{"internalType":"address","name":"token","type":"address"},{"internalType":"uint256","name":"amount","type":"uint256"},{"components":[{"internalType":"address","name":"router1","type":"address"},{"internalType":"address","name":"router2","type":"address"},{"internalType":"address[]","name":"path1","type":"address[]"},{"internalType":"address[]","name":"path2","type":"address[]"},{"internalType":"uint256","name":"amountOutMin1","type":"uint256"},{"internalType":"uint256","name":"amountOutMin2","type":"uint256"}],"internalType":"struct ZablonFlashBot.ArbParams","name":"params","type":"tuple"}],"name":"requestFlashLoan","outputs":[],"stateMutability":"nonpayable","type":"function"},{"inputs":[{"internalType":"address","name":"token","type":"address"},{"internalType":"address","name":"spender","type":"address"}],"name":"setAllowances","outputs":[],"stateMutability":"nonpayable","type":"function"},{"inputs":[{"internalType":"address","name":"token","type":"address"}],"name":"withdraw","outputs":[],"stateMutability":"nonpayable","type":"function"},{"stateMutability":"payable","type":"receive"}],"evm":{"bytecode":{"linkReferences":{},"object":"60e060405234801561001057600080fd5b5060405161106238038061106283398101604081905261002f916100c3565b80806001600160a01b03166080816001600160a01b031681525050806001600160a01b031663026b1d5f6040518163ffffffff1660e01b8152600401602060405180830381865afa158015610088573d6000803e3d6000fd5b505050506040513d601f19601f820116820180604052508101906100ac91906100c3565b6001600160a01b031660a05250503360c0526100f3565b6000602082840312156100d557600080fd5b81516001600160a01b03811681146100ec57600080fd5b9392505050565b60805160a05160c051610f0961015960003960008181610189015281816101d6015281816105e50152818161063e015281816106b0015261079601526000818161015501528181610216015281816102cc01526105490152600060920152610f096000f3fe6080604052600436106100745760003560e01c806351cff8d91161004e57806351cff8d9146101235780637535d246146101435780638da5cb5b14610177578063d00e883a146101ab57600080fd5b80630542975c1461008057806310c36b5e146100d15780631b11d0ff146100f357600080fd5b3661007b57005b600080fd5b34801561008c57600080fd5b506100b47f000000000000000000000000000000000000000000000000000000000000000081565b6040516001600160a01b0390911681526020015b60405180910390f35b3480156100dd57600080fd5b506100f16100ec366004610869565b6101cb565b005b3480156100ff57600080fd5b5061011361010e3660046108c7565b6102bf565b60405190151581526020016100c8565b34801561012f57600080fd5b506100f161013e36600461096d565b6105da565b34801561014f57600080fd5b506100b47f000000000000000000000000000000000000000000000000000000000000000081565b34801561018357600080fd5b506100b47f000000000000000000000000000000000000000000000000000000000000000081565b3480156101b757600080fd5b506100f16101c636600461098f565b61078b565b336001600160a01b037f00000000000000000000000000000000000000000000000000000000000000001614610214576040516330cd747160e01b815260040160405180910390fd5b7f00000000000000000000000000000000000000000000000000000000000000006001600160a01b03166342b0b77c308585856040516020016102579190610a59565b60405160208183030381529060405260006040518663ffffffff1660e01b8152600401610288959493929190610af6565b600060405180830381600087803b1580156102a257600080fd5b505af11580156102b6573d6000803e3d6000fd5b50505050505050565b6000336001600160a01b037f0000000000000000000000000000000000000000000000000000000000000000161461030a57604051632e1b1a4160e21b815260040160405180910390fd5b6001600160a01b0384163014610333576040516317fb43e560e31b815260040160405180910390fd5b600061034183850185610c74565b8051608082015160408084015190516338ed173960e01b81529394506000936001600160a01b03909316926338ed173992610384928d9230904290600401610d3e565b6000604051808303816000875af11580156103a3573d6000803e3d6000fd5b505050506040513d6000823e601f3d908101601f191682016040526103cb9190810190610daf565b9050600082602001516001600160a01b03166338ed173983600185516103f19190610e56565b8151811061040157610401610e6f565b60200260200101518560a00151866060015130426040518663ffffffff1660e01b8152600401610435959493929190610d3e565b6000604051808303816000875af1158015610454573d6000803e3d6000fd5b505050506040513d6000823e601f3d908101601f1916820160405261047c9190810190610daf565b90506000816001835161048f9190610e56565b8151811061049f5761049f610e6f565b602002602001015190506000898b6104b79190610e85565b90508082116104d957604051632ab628bd60e11b815260040160405180910390fd5b845160208601516040517fe5c249ee7922794036b6cc5c5b4c267e80b6c868f516d309b56e56a14c8156979261052a9285870383526001600160a01b03918216602084015216604082015260600190565b60405180910390a160405163095ea7b360e01b81526001600160a01b037f000000000000000000000000000000000000000000000000000000000000000081166004830152602482018390528d169063095ea7b3906044016020604051808303816000875af11580156105a1573d6000803e3d6000fd5b505050506040513d601f19601f820116820180604052508101906105c59190610e98565b506001955050505050505b9695505050505050565b336001600160a01b037f00000000000000000000000000000000000000000000000000000000000000001614610623576040516330cd747160e01b815260040160405180910390fd5b6001600160a01b03811661068a576040516001600160a01b037f000000000000000000000000000000000000000000000000000000000000000016904780156108fc02916000818181858888f19350505050158015610686573d6000803e3d6000fd5b5050565b6040516370a0823160e01b81523060048201526001600160a01b0382169063a9059cbb907f00000000000000000000000000000000000000000000000000000000000000009083906370a0823190602401602060405180830381865afa1580156106f8573d6000803e3d6000fd5b505050506040513d601f19601f8201168201806040525081019061071c9190610eba565b6040516001600160e01b031960e085901b1681526001600160a01b03909216600483015260248201526044016020604051808303816000875af1158015610767573d6000803e3d6000fd5b505050506040513d601f19601f820116820180604052508101906106869190610e98565b336001600160a01b037f000000000000000000000000000000000000000000000000000000000000000016146107d4576040516330cd747160e01b815260040160405180910390fd5b60405163095ea7b360e01b81526001600160a01b038281166004830152600019602483015283169063095ea7b3906044016020604051808303816000875af1158015610824573d6000803e3d6000fd5b505050506040513d601f19601f820116820180604052508101906108489190610e98565b505050565b80356001600160a01b038116811461086457600080fd5b919050565b60008060006060848603121561087e57600080fd5b6108878461084d565b925060208401359150604084013567ffffffffffffffff8111156108aa57600080fd5b840160c081870312156108bc57600080fd5b809150509250925092565b60008060008060008060a087890312156108e057600080fd5b6108e98761084d565b955060208701359450604087013593506109056060880161084d565b9250608087013567ffffffffffffffff8082111561092257600080fd5b818901915089601f83011261093657600080fd5b81358181111561094557600080fd5b8a602082850101111561095757600080fd5b6020830194508093505050509295509295509295565b60006020828403121561097f57600080fd5b6109888261084d565b9392505050565b600080604083850312156109a257600080fd5b6109ab8361084d565b91506109b96020840161084d565b90509250929050565b6000808335601e198436030181126109d957600080fd5b830160208101925035905067ffffffffffffffff8111156109f957600080fd5b8060051b3603821315610a0b57600080fd5b9250929050565b8183526000602080850194508260005b85811015610a4e576001600160a01b03610a3b8361084d565b1687529582019590820190600101610a22565b509495945050505050565b6020815260006001600160a01b0380610a718561084d565b16602084015280610a846020860161084d565b16604084015250610a9860408401846109c2565b60c06060850152610aad60e085018284610a12565b915050610abd60608501856109c2565b848303601f19016080860152610ad4838284610a12565b92505050608084013560a084015260a084013560c08401528091505092915050565b600060018060a01b03808816835260208188168185015286604085015260a06060850152855191508160a085015260005b82811015610b435786810182015185820160c001528101610b27565b5050600060c0828501015260c0601f19601f8301168401019150506105d0608083018461ffff169052565b634e487b7160e01b600052604160045260246000fd5b60405160c0810167ffffffffffffffff81118282101715610ba757610ba7610b6e565b60405290565b604051601f8201601f1916810167ffffffffffffffff81118282101715610bd657610bd6610b6e565b604052919050565b600067ffffffffffffffff821115610bf857610bf8610b6e565b5060051b60200190565b600082601f830112610c1357600080fd5b81356020610c28610c2383610bde565b610bad565b82815260059290921b84018101918181019086841115610c4757600080fd5b8286015b84811015610c6957610c5c8161084d565b8352918301918301610c4b565b509695505050505050565b600060208284031215610c8657600080fd5b813567ffffffffffffffff80821115610c9e57600080fd5b9083019060c08286031215610cb257600080fd5b610cba610b84565b610cc38361084d565b8152610cd16020840161084d565b6020820152604083013582811115610ce857600080fd5b610cf487828601610c02565b604083015250606083013582811115610d0c57600080fd5b610d1887828601610c02565b6060830152506080830135608082015260a083013560a082015280935050505092915050565b600060a082018783526020878185015260a0604085015281875180845260c086019150828901935060005b81811015610d8e5784516001600160a01b031683529383019391830191600101610d69565b50506001600160a01b03969096166060850152505050608001529392505050565b60006020808385031215610dc257600080fd5b825167ffffffffffffffff811115610dd957600080fd5b8301601f81018513610dea57600080fd5b8051610df8610c2382610bde565b81815260059190911b82018301908381019087831115610e1757600080fd5b928401925b82841015610e3557835182529284019290840190610e1c565b979650505050505050565b634e487b7160e01b600052601160045260246000fd5b81810381811115610e6957610e69610e40565b92915050565b634e487b7160e01b600052603260045260246000fd5b80820180821115610e6957610e69610e40565b600060208284031215610eaa57600080fd5b8151801515811461098857600080fd5b600060208284031215610ecc57600080fd5b505191905056fea2646970667358221220a7ff1e931f28cf89a2802b14309fe71b0e3c2dabd4712a23a0d30b3db0220e0e64736f6c63430008140033","opcodes":"PUSH1 0xE0 PUSH1 0x40 MSTORE CALLVALUE DUP1 ISZERO PUSH2 0x10 JUMPI PUSH1 0x0 DUP1 REVERT JUMPDEST POP PUSH1 0x40 MLOAD PUSH2 0x1062 CODESIZE SUB DUP1 PUSH2 0x1062 DUP4 CODECOPY DUP2 ADD PUSH1 0x40 DUP2 SWAP1 MSTORE PUSH2 0x2F SWAP2 PUSH2 0xC3 JUMP JUMPDEST DUP1 DUP1 PUSH1 0x1 PUSH1 0x1 PUSH1 0xA0 SHL SUB AND PUSH1 0x80 DUP2 PUSH1 0x1 PUSH1 0x1 PUSH1 0xA0 SHL SUB AND DUP2 MSTORE POP POP DUP1 PUSH1 0x1 PUSH1 0x1 PUSH1 0xA0 SHL SUB AND PUSH4 0x26B1D5F PUSH1 0x40 MLOAD DUP2 PUSH4 0xFFFFFFFF AND PUSH1 0xE0 SHL DUP2 MSTORE PUSH1 0x4 ADD PUSH1 0x20 PUSH1 0x40 MLOAD DUP1 DUP4 SUB DUP2 DUP7 GAS STATICCALL ISZERO DUP1 ISZERO PUSH2 0x88 JUMPI RETURNDATASIZE PUSH1 0x0 DUP1 RETURNDATACOPY RETURNDATASIZE PUSH1 0x0 REVERT JUMPDEST POP POP POP POP PUSH1 0x40 MLOAD RETURNDATASIZE PUSH1 0x1F NOT PUSH1 0x1F DUP3 ADD AND DUP3 ADD DUP1 PUSH1 0x40 MSTORE POP DUP2 ADD SWAP1 PUSH2 0xAC SWAP2 SWAP1 PUSH2 0xC3 JUMP JUMPDEST PUSH1 0x1 PUSH1 0x1 PUSH1 0xA0 SHL SUB AND PUSH1 0xA0 MSTORE POP POP CALLER PUSH1 0xC0 MSTORE PUSH2 0xF3 JUMP JUMPDEST PUSH1 0x0 PUSH1 0x20 DUP3 DUP5 SUB SLT ISZERO PUSH2 0xD5 JUMPI PUSH1 0x0 DUP1 REVERT JUMPDEST DUP2 MLOAD PUSH1 0x1 PUSH1 0x1 PUSH1 0xA0 SHL SUB DUP2 AND DUP2 EQ PUSH2 0xEC JUMPI PUSH1 0x0 DUP1 REVERT JUMPDEST SWAP4 SWAP3 POP POP POP JUMP JUMPDEST PUSH1 0x80 MLOAD PUSH1 0xA0 MLOAD PUSH1 0xC0 MLOAD PUSH2 0xF09 PUSH2 0x159 PUSH1 0x0 CODECOPY PUSH1 0x0 DUP2 DUP2 PUSH2 0x189 ADD MSTORE DUP2 DUP2 PUSH2 0x1D6 ADD MSTORE DUP2 DUP2 PUSH2 0x5E5 ADD MSTORE DUP2 DUP2 PUSH2 0x63E ADD MSTORE DUP2 DUP2 PUSH2 0x6B0 ADD MSTORE PUSH2 0x796 ADD MSTORE PUSH1 0x0 DUP2 DUP2 PUSH2 0x155 ADD MSTORE DUP2 DUP2 PUSH2 0x216 ADD MSTORE DUP2 DUP2 PUSH2 0x2CC ADD MSTORE PUSH2 0x549 ADD MSTORE PUSH1 0x0 PUSH1 0x92 ADD MSTORE PUSH2 0xF09 PUSH1 0x0 RETURN INVALID PUSH1 0x80 PUSH1 0x40 MSTORE PUSH1 0x4 CALLDATASIZE LT PUSH2 0x74 JUMPI PUSH1 0x0 CALLDATALOAD PUSH1 0xE0 SHR DUP1 PUSH4 0x51CFF8D9 GT PUSH2 0x4E JUMPI DUP1 PUSH4 0x51CFF8D9 EQ PUSH2 0x123 JUMPI DUP1 PUSH4 0x7535D246 EQ PUSH2 0x143 JUMPI DUP1 PUSH4 0x8DA5CB5B EQ PUSH2 0x177 JUMPI DUP1 PUSH4 0xD00E883A EQ PUSH2 0x1AB JUMPI PUSH1 0x0 DUP1 REVERT JUMPDEST DUP1 PUSH4 0x542975C EQ PUSH2 0x80 JUMPI DUP1 PUSH4 0x10C36B5E EQ PUSH2 0xD1 JUMPI DUP1 PUSH4 0x1B11D0FF EQ PUSH2 0xF3 JUMPI PUSH1 0x0 DUP1 REVERT JUMPDEST CALLDATASIZE PUSH2 0x7B JUMPI STOP JUMPDEST PUSH1 0x0 DUP1 REVERT JUMPDEST CALLVALUE DUP1 ISZERO PUSH2 0x8C JUMPI PUSH1 0x0 DUP1 REVERT JUMPDEST POP PUSH2 0xB4 PUSH32 0x0 DUP2 JUMP JUMPDEST PUSH1 0x40 MLOAD PUSH1 0x1 PUSH1 0x1 PUSH1 0xA0 SHL SUB SWAP1 SWAP2 AND DUP2 MSTORE PUSH1 0x20 ADD JUMPDEST PUSH1 0x40 MLOAD DUP1 SWAP2 SUB SWAP1 RETURN JUMPDEST CALLVALUE DUP1 ISZERO PUSH2 0xDD JUMPI PUSH1 0x0 DUP1 REVERT JUMPDEST POP PUSH2 0xF1 PUSH2 0xEC CALLDATASIZE PUSH1 0x4 PUSH2 0x869 JUMP JUMPDEST PUSH2 0x1CB JUMP JUMPDEST STOP JUMPDEST CALLVALUE DUP1 ISZERO PUSH2 0xFF JUMPI PUSH1 0x0 DUP1 REVERT JUMPDEST POP PUSH2 0x113 PUSH2 0x10E CALLDATASIZE PUSH1 0x4 PUSH2 0x8C7 JUMP JUMPDEST PUSH2 0x2BF JUMP JUMPDEST PUSH1 0x40 MLOAD SWAP1 ISZERO ISZERO DUP2 MSTORE PUSH1 0x20 ADD PUSH2 0xC8 JUMP JUMPDEST CALLVALUE DUP1 ISZERO PUSH2 0x12F JUMPI PUSH1 0x0 DUP1 REVERT JUMPDEST POP PUSH2 0xF1 PUSH2 0x13E CALLDATASIZE PUSH1 0x4 PUSH2 0x96D JUMP JUMPDEST PUSH2 0x5DA JUMP JUMPDEST CALLVALUE DUP1 ISZERO PUSH2 0x14F JUMPI PUSH1 0x0 DUP1 REVERT JUMPDEST POP PUSH2 0xB4 PUSH32 0x0 DUP2 JUMP JUMPDEST CALLVALUE DUP1 ISZERO PUSH2 0x183 JUMPI PUSH1 0x0 DUP1 REVERT JUMPDEST POP PUSH2 0xB4 PUSH32 0x0 DUP2 JUMP JUMPDEST CALLVALUE DUP1 ISZERO PUSH2 0x1B7 JUMPI PUSH1 0x0 DUP1 REVERT JUMPDEST POP PUSH2 0xF1 PUSH2 0x1C6 CALLDATASIZE PUSH1 0x4 PUSH2 0x98F JUMP JUMPDEST PUSH2 0x78B JUMP JUMPDEST CALLER PUSH1 0x1 PUSH1 0x1 PUSH1 0xA0 SHL SUB PUSH32 0x0 AND EQ PUSH2 0x214 JUMPI PUSH1 0x40 MLOAD PUSH4 0x30CD7471 PUSH1 0xE0 SHL DUP2 MSTORE PUSH1 0x4 ADD PUSH1 0x40 MLOAD DUP1 SWAP2 SUB SWAP1 REVERT JUMPDEST PUSH32 0x0 PUSH1 0x1 PUSH1 0x1 PUSH1 0xA0 SHL SUB AND PUSH4 0x42B0B77C ADDRESS DUP6 DUP6 DUP6 PUSH1 0x40 MLOAD PUSH1 0x20 ADD PUSH2 0x257 SWAP2 SWAP1 PUSH2 0xA59 JUMP JUMPDEST PUSH1 0x40 MLOAD PUSH1 0x20 DUP2 DUP4 SUB SUB DUP2 MSTORE SWAP1 PUSH1 0x40 MSTORE PUSH1 0x0 PUSH1 0x40 MLOAD DUP7 PUSH4 0xFFFFFFFF AND PUSH1 0xE0 SHL DUP2 MSTORE PUSH1 0x4 ADD PUSH2 0x288 SWAP6 SWAP5 SWAP4 SWAP3 SWAP2 SWAP1 PUSH2 0xAF6 JUMP JUMPDEST PUSH1 0x0 PUSH1 0x40 MLOAD DUP1 DUP4 SUB DUP2 PUSH1 0x0 DUP8 DUP1 EXTCODESIZE ISZERO DUP1 ISZERO PUSH2 0x2A2 JUMPI PUSH1 0x0 DUP1 REVERT JUMPDEST POP GAS CALL ISZERO DUP1 ISZERO PUSH2 0x2B6 JUMPI RETURNDATASIZE PUSH1 0x0 DUP1 RETURNDATACOPY RETURNDATASIZE PUSH1 0x0 REVERT JUMPDEST POP POP POP POP POP POP POP JUMP JUMPDEST PUSH1 0x0 CALLER PUSH1 0x1 PUSH1 0x1 PUSH1 0xA0 SHL SUB PUSH32 0x0 AND EQ PUSH2 0x30A JUMPI PUSH1 0x40 MLOAD PUSH4 0x2E1B1A41 PUSH1 0xE2 SHL DUP2 MSTORE PUSH1 0x4 ADD PUSH1 0x40 MLOAD DUP1 SWAP2 SUB SWAP1 REVERT JUMPDEST PUSH1 0x1 PUSH1 0x1 PUSH1 0xA0 SHL SUB DUP5 AND ADDRESS EQ PUSH2 0x333 JUMPI PUSH1 0x40 MLOAD PUSH4 0x17FB43E5 PUSH1 0xE3 SHL DUP2 MSTORE PUSH1 0x4 ADD PUSH1 0x40 MLOAD DUP1 SWAP2 SUB SWAP1 REVERT JUMPDEST PUSH1 0x0 PUSH2 0x341 DUP4 DUP6 ADD DUP6 PUSH2 0xC74 JUMP JUMPDEST DUP1 MLOAD PUSH1 0x80 DUP3 ADD MLOAD PUSH1 0x40 DUP1 DUP5 ADD MLOAD SWAP1 MLOAD PUSH4 0x38ED1739 PUSH1 0xE0 SHL DUP2 MSTORE SWAP4 SWAP5 POP PUSH1 0x0 SWAP4 PUSH1 0x1 PUSH1 0x1 PUSH1 0xA0 SHL SUB SWAP1 SWAP4 AND SWAP3 PUSH4 0x38ED1739 SWAP3 PUSH2 0x384 SWAP3 DUP14 SWAP3 ADDRESS SWAP1 TIMESTAMP SWAP1 PUSH1 0x4 ADD PUSH2 0xD3E JUMP JUMPDEST PUSH1 0x0 PUSH1 0x40 MLOAD DUP1 DUP4 SUB DUP2 PUSH1 0x0 DUP8 GAS CALL ISZERO DUP1 ISZERO PUSH2 0x3A3 JUMPI RETURNDATASIZE PUSH1 0x0 DUP1 RETURNDATACOPY RETURNDATASIZE PUSH1 0x0 REVERT JUMPDEST POP POP POP POP PUSH1 0x40 MLOAD RETURNDATASIZE PUSH1 0x0 DUP3 RETURNDATACOPY PUSH1 0x1F RETURNDATASIZE SWAP1 DUP2 ADD PUSH1 0x1F NOT AND DUP3 ADD PUSH1 0x40 MSTORE PUSH2 0x3CB SWAP2 SWAP1 DUP2 ADD SWAP1 PUSH2 0xDAF JUMP JUMPDEST SWAP1 POP PUSH1 0x0 DUP3 PUSH1 0x20 ADD MLOAD PUSH1 0x1 PUSH1 0x1 PUSH1 0xA0 SHL SUB AND PUSH4 0x38ED1739 DUP4 PUSH1 0x1 DUP6 MLOAD PUSH2 0x3F1 SWAP2 SWAP1 PUSH2 0xE56 JUMP JUMPDEST DUP2 MLOAD DUP2 LT PUSH2 0x401 JUMPI PUSH2 0x401 PUSH2 0xE6F JUMP JUMPDEST PUSH1 0x20 MUL PUSH1 0x20 ADD ADD MLOAD DUP6 PUSH1 0xA0 ADD MLOAD DUP7 PUSH1 0x60 ADD MLOAD ADDRESS TIMESTAMP PUSH1 0x40 MLOAD DUP7 PUSH4 0xFFFFFFFF AND PUSH1 0xE0 SHL DUP2 MSTORE PUSH1 0x4 ADD PUSH2 0x435 SWAP6 SWAP5 SWAP4 SWAP3 SWAP2 SWAP1 PUSH2 0xD3E JUMP JUMPDEST PUSH1 0x0 PUSH1 0x40 MLOAD DUP1 DUP4 SUB DUP2 PUSH1 0x0 DUP8 GAS CALL ISZERO DUP1 ISZERO PUSH2 0x454 JUMPI RETURNDATASIZE PUSH1 0x0 DUP1 RETURNDATACOPY RETURNDATASIZE PUSH1 0x0 REVERT JUMPDEST POP POP POP POP PUSH1 0x40 MLOAD RETURNDATASIZE PUSH1 0x0 DUP3 RETURNDATACOPY PUSH1 0x1F RETURNDATASIZE SWAP1 DUP2 ADD PUSH1 0x1F NOT AND DUP3 ADD PUSH1 0x40 MSTORE PUSH2 0x47C SWAP2 SWAP1 DUP2 ADD SWAP1 PUSH2 0xDAF JUMP JUMPDEST SWAP1 POP PUSH1 0x0 DUP2 PUSH1 0x1 DUP4 MLOAD PUSH2 0x48F SWAP2 SWAP1 PUSH2 0xE56 JUMP JUMPDEST DUP2 MLOAD DUP2 LT PUSH2 0x49F JUMPI PUSH2 0x49F PUSH2 0xE6F JUMP JUMPDEST PUSH1 0x20 MUL PUSH1 0x20 ADD ADD MLOAD SWAP1 POP PUSH1 0x0 DUP10 DUP12 PUSH2 0x4B7 SWAP2 SWAP1 PUSH2 0xE85 JUMP JUMPDEST SWAP1 POP DUP1 DUP3 GT PUSH2 0x4D9 JUMPI PUSH1 0x40 MLOAD PUSH4 0x2AB628BD PUSH1 0xE1 SHL DUP2 MSTORE PUSH1 0x4 ADD PUSH1 0x40 MLOAD DUP1 SWAP2 SUB SWAP1 REVERT JUMPDEST DUP5 MLOAD PUSH1 0x20 DUP7 ADD MLOAD PUSH1 0x40 MLOAD PUSH32 0xE5C249EE7922794036B6CC5C5B4C267E80B6C868F516D309B56E56A14C815697 SWAP3 PUSH2 0x52A SWAP3 DUP6 DUP8 SUB DUP4 MSTORE PUSH1 0x1 PUSH1 0x1 PUSH1 0xA0 SHL SUB SWAP2 DUP3 AND PUSH1 0x20 DUP5 ADD MSTORE AND PUSH1 0x40 DUP3 ADD MSTORE PUSH1 0x60 ADD SWAP1 JUMP JUMPDEST PUSH1 0x40 MLOAD DUP1 SWAP2 SUB SWAP1 LOG1 PUSH1 0x40 MLOAD PUSH4 0x95EA7B3 PUSH1 0xE0 SHL DUP2 MSTORE PUSH1 0x1 PUSH1 0x1 PUSH1 0xA0 SHL SUB PUSH32 0x0 DUP2 AND PUSH1 0x4 DUP4 ADD MSTORE PUSH1 0x24 DUP3 ADD DUP4 SWAP1 MSTORE DUP14 AND SWAP1 PUSH4 0x95EA7B3 SWAP1 PUSH1 0x44 ADD PUSH1 0x20 PUSH1 0x40 MLOAD DUP1 DUP4 SUB DUP2 PUSH1 0x0 DUP8 GAS CALL ISZERO DUP1 ISZERO PUSH2 0x5A1 JUMPI RETURNDATASIZE PUSH1 0x0 DUP1 RETURNDATACOPY RETURNDATASIZE PUSH1 0x0 REVERT JUMPDEST POP POP POP POP PUSH1 0x40 MLOAD RETURNDATASIZE PUSH1 0x1F NOT PUSH1 0x1F DUP3 ADD AND DUP3 ADD DUP1 PUSH1 0x40 MSTORE POP DUP2 ADD SWAP1 PUSH2 0x5C5 SWAP2 SWAP1 PUSH2 0xE98 JUMP JUMPDEST POP PUSH1 0x1 SWAP6 POP POP POP POP POP POP JUMPDEST SWAP7 SWAP6 POP POP POP POP POP POP JUMP JUMPDEST CALLER PUSH1 0x1 PUSH1 0x1 PUSH1 0xA0 SHL SUB PUSH32 0x0 AND EQ PUSH2 0x623 JUMPI PUSH1 0x40 MLOAD PUSH4 0x30CD7471 PUSH1 0xE0 SHL DUP2 MSTORE PUSH1 0x4 ADD PUSH1 0x40 MLOAD DUP1 SWAP2 SUB SWAP1 REVERT JUMPDEST PUSH1 0x1 PUSH1 0x1 PUSH1 0xA0 SHL SUB DUP2 AND PUSH2 0x68A JUMPI PUSH1 0x40 MLOAD PUSH1 0x1 PUSH1 0x1 PUSH1 0xA0 SHL SUB PUSH32 0x0 AND SWAP1 SELFBALANCE DUP1 ISZERO PUSH2 0x8FC MUL SWAP2 PUSH1 0x0 DUP2 DUP2 DUP2 DUP6 DUP9 DUP9 CALL SWAP4 POP POP POP POP ISZERO DUP1 ISZERO PUSH2 0x686 JUMPI RETURNDATASIZE PUSH1 0x0 DUP1 RETURNDATACOPY RETURNDATASIZE PUSH1 0x0 REVERT JUMPDEST POP POP JUMP JUMPDEST PUSH1 0x40 MLOAD PUSH4 0x70A08231 PUSH1 0xE0 SHL DUP2 MSTORE ADDRESS PUSH1 0x4 DUP3 ADD MSTORE PUSH1 0x1 PUSH1 0x1 PUSH1 0xA0 SHL SUB DUP3 AND SWAP1 PUSH4 0xA9059CBB SWAP1 PUSH32 0x0 SWAP1 DUP4 SWAP1 PUSH4 0x70A08231 SWAP1 PUSH1 0x24 ADD PUSH1 0x20 PUSH1 0x40 MLOAD DUP1 DUP4 SUB DUP2 DUP7 GAS STATICCALL ISZERO DUP1 ISZERO PUSH2 0x6F8 JUMPI RETURNDATASIZE PUSH1 0x0 DUP1 RETURNDATACOPY RETURNDATASIZE PUSH1 0x0 REVERT JUMPDEST POP POP POP POP PUSH1 0x40 MLOAD RETURNDATASIZE PUSH1 0x1F NOT PUSH1 0x1F DUP3 ADD AND DUP3 ADD DUP1 PUSH1 0x40 MSTORE POP DUP2 ADD SWAP1 PUSH2 0x71C SWAP2 SWAP1 PUSH2 0xEBA JUMP JUMPDEST PUSH1 0x40 MLOAD PUSH1 0x1 PUSH1 0x1 PUSH1 0xE0 SHL SUB NOT PUSH1 0xE0 DUP6 SWAP1 SHL AND DUP2 MSTORE PUSH1 0x1 PUSH1 0x1 PUSH1 0xA0 SHL SUB SWAP1 SWAP3 AND PUSH1 0x4 DUP4 ADD MSTORE PUSH1 0x24 DUP3 ADD MSTORE PUSH1 0x44 ADD PUSH1 0x20 PUSH1 0x40 MLOAD DUP1 DUP4 SUB DUP2 PUSH1 0x0 DUP8 GAS CALL ISZERO DUP1 ISZERO PUSH2 0x767 JUMPI RETURNDATASIZE PUSH1 0x0 DUP1 RETURNDATACOPY RETURNDATASIZE PUSH1 0x0 REVERT JUMPDEST POP POP POP POP PUSH1 0x40 MLOAD RETURNDATASIZE PUSH1 0x1F NOT PUSH1 0x1F DUP3 ADD AND DUP3 ADD DUP1 PUSH1 0x40 MSTORE POP DUP2 ADD SWAP1 PUSH2 0x686 SWAP2 SWAP1 PUSH2 0xE98 JUMP JUMPDEST CALLER PUSH1 0x1 PUSH1 0x1 PUSH1 0xA0 SHL SUB PUSH32 0x0 AND EQ PUSH2 0x7D4 JUMPI PUSH1 0x40 MLOAD PUSH4 0x30CD7471 PUSH1 0xE0 SHL DUP2 MSTORE PUSH1 0x4 ADD PUSH1 0x40 MLOAD DUP1 SWAP2 SUB SWAP1 REVERT JUMPDEST PUSH1 0x40 MLOAD PUSH4 0x95EA7B3 PUSH1 0xE0 SHL DUP2 MSTORE PUSH1 0x1 PUSH1 0x1 PUSH1 0xA0 SHL SUB DUP3 DUP2 AND PUSH1 0x4 DUP4 ADD MSTORE PUSH1 0x0 NOT PUSH1 0x24 DUP4 ADD MSTORE DUP4 AND SWAP1 PUSH4 0x95EA7B3 SWAP1 PUSH1 0x44 ADD PUSH1 0x20 PUSH1 0x40 MLOAD DUP1 DUP4 SUB DUP2 PUSH1 0x0 DUP8 GAS CALL ISZERO DUP1 ISZERO PUSH2 0x824 JUMPI RETURNDATASIZE PUSH1 0x0 DUP1 RETURNDATACOPY RETURNDATASIZE PUSH1 0x0 REVERT JUMPDEST POP POP POP POP PUSH1 0x40 MLOAD RETURNDATASIZE PUSH1 0x1F NOT PUSH1 0x1F DUP3 ADD AND DUP3 ADD DUP1 PUSH1 0x40 MSTORE POP DUP2 ADD SWAP1 PUSH2 0x848 SWAP2 SWAP1 PUSH2 0xE98 JUMP JUMPDEST POP POP POP JUMP JUMPDEST DUP1 CALLDATALOAD PUSH1 0x1 PUSH1 0x1 PUSH1 0xA0 SHL SUB DUP2 AND DUP2 EQ PUSH2 0x864 JUMPI PUSH1 0x0 DUP1 REVERT JUMPDEST SWAP2 SWAP1 POP JUMP JUMPDEST PUSH1 0x0 DUP1 PUSH1 0x0 PUSH1 0x60 DUP5 DUP7 SUB SLT ISZERO PUSH2 0x87E JUMPI PUSH1 0x0 DUP1 REVERT JUMPDEST PUSH2 0x887 DUP5 PUSH2 0x84D JUMP JUMPDEST SWAP3 POP PUSH1 0x20 DUP5 ADD CALLDATALOAD SWAP2 POP PUSH1 0x40 DUP5 ADD CALLDATALOAD PUSH8 0xFFFFFFFFFFFFFFFF DUP2 GT ISZERO PUSH2 0x8AA JUMPI PUSH1 0x0 DUP1 REVERT JUMPDEST DUP5 ADD PUSH1 0xC0 DUP2 DUP8 SUB SLT ISZERO PUSH2 0x8BC JUMPI PUSH1 0x0 DUP1 REVERT JUMPDEST DUP1 SWAP2 POP POP SWAP3 POP SWAP3 POP SWAP3 JUMP JUMPDEST PUSH1 0x0 DUP1 PUSH1 0x0 DUP1 PUSH1 0x0 DUP1 PUSH1 0xA0 DUP8 DUP10 SUB SLT ISZERO PUSH2 0x8E0 JUMPI PUSH1 0x0 DUP1 REVERT JUMPDEST PUSH2 0x8E9 DUP8 PUSH2 0x84D JUMP JUMPDEST SWAP6 POP PUSH1 0x20 DUP8 ADD CALLDATALOAD SWAP5 POP PUSH1 0x40 DUP8 ADD CALLDATALOAD SWAP4 POP PUSH2 0x905 PUSH1 0x60 DUP9 ADD PUSH2 0x84D JUMP JUMPDEST SWAP3 POP PUSH1 0x80 DUP8 ADD CALLDATALOAD PUSH8 0xFFFFFFFFFFFFFFFF DUP1 DUP3 GT ISZERO PUSH2 0x922 JUMPI PUSH1 0x0 DUP1 REVERT JUMPDEST DUP2 DUP10 ADD SWAP2 POP DUP10 PUSH1 0x1F DUP4 ADD SLT PUSH2 0x936 JUMPI PUSH1 0x0 DUP1 REVERT JUMPDEST DUP2 CALLDATALOAD DUP2 DUP2 GT ISZERO PUSH2 0x945 JUMPI PUSH1 0x0 DUP1 REVERT JUMPDEST DUP11 PUSH1 0x20 DUP3 DUP6 ADD ADD GT ISZERO PUSH2 0x957 JUMPI PUSH1 0x0 DUP1 REVERT JUMPDEST PUSH1 0x20 DUP4 ADD SWAP5 POP DUP1 SWAP4 POP POP POP POP SWAP3 SWAP6 POP SWAP3 SWAP6 POP SWAP3 SWAP6 JUMP JUMPDEST PUSH1 0x0 PUSH1 0x20 DUP3 DUP5 SUB SLT ISZERO PUSH2 0x97F JUMPI PUSH1 0x0 DUP1 REVERT JUMPDEST PUSH2 0x988 DUP3 PUSH2 0x84D JUMP JUMPDEST SWAP4 SWAP3 POP POP POP JUMP JUMPDEST PUSH1 0x0 DUP1 PUSH1 0x40 DUP4 DUP6 SUB SLT ISZERO PUSH2 0x9A2 JUMPI PUSH1 0x0 DUP1 REVERT JUMPDEST PUSH2 0x9AB DUP4 PUSH2 0x84D JUMP JUMPDEST SWAP2 POP PUSH2 0x9B9 PUSH1 0x20 DUP5 ADD PUSH2 0x84D JUMP JUMPDEST SWAP1 POP SWAP3 POP SWAP3 SWAP1 POP JUMP JUMPDEST PUSH1 0x0 DUP1 DUP4 CALLDATALOAD PUSH1 0x1E NOT DUP5 CALLDATASIZE SUB ADD DUP2 SLT PUSH2 0x9D9 JUMPI PUSH1 0x0 DUP1 REVERT JUMPDEST DUP4 ADD PUSH1 0x20 DUP2 ADD SWAP3 POP CALLDATALOAD SWAP1 POP PUSH8 0xFFFFFFFFFFFFFFFF DUP2 GT ISZERO PUSH2 0x9F9 JUMPI PUSH1 0x0 DUP1 REVERT JUMPDEST DUP1 PUSH1 0x5 SHL CALLDATASIZE SUB DUP3 SGT ISZERO PUSH2 0xA0B JUMPI PUSH1 0x0 DUP1 REVERT JUMPDEST SWAP3 POP SWAP3 SWAP1 POP JUMP JUMPDEST DUP2 DUP4 MSTORE PUSH1 0x0 PUSH1 0x20 DUP1 DUP6 ADD SWAP5 POP DUP3 PUSH1 0x0 JUMPDEST DUP6 DUP2 LT ISZERO PUSH2 0xA4E JUMPI PUSH1 0x1 PUSH1 0x1 PUSH1 0xA0 SHL SUB PUSH2 0xA3B DUP4 PUSH2 0x84D JUMP JUMPDEST AND DUP8 MSTORE SWAP6 DUP3 ADD SWAP6 SWAP1 DUP3 ADD SWAP1 PUSH1 0x1 ADD PUSH2 0xA22 JUMP JUMPDEST POP SWAP5 SWAP6 SWAP5 POP POP POP POP POP JUMP JUMPDEST PUSH1 0x20 DUP2 MSTORE PUSH1 0x0 PUSH1 0x1 PUSH1 0x1 PUSH1 0xA0 SHL SUB DUP1 PUSH2 0xA71 DUP6 PUSH2 0x84D JUMP JUMPDEST AND PUSH1 0x20 DUP5 ADD MSTORE DUP1 PUSH2 0xA84 PUSH1 0x20 DUP7 ADD PUSH2 0x84D JUMP JUMPDEST AND PUSH1 0x40 DUP5 ADD MSTORE POP PUSH2 0xA98 PUSH1 0x40 DUP5 ADD DUP5 PUSH2 0x9C2 JUMP JUMPDEST PUSH1 0xC0 PUSH1 0x60 DUP6 ADD MSTORE PUSH2 0xAAD PUSH1 0xE0 DUP6 ADD DUP3 DUP5 PUSH2 0xA12 JUMP JUMPDEST SWAP2 POP POP PUSH2 0xABD PUSH1 0x60 DUP6 ADD DUP6 PUSH2 0x9C2 JUMP JUMPDEST DUP5 DUP4 SUB PUSH1 0x1F NOT ADD PUSH1 0x80 DUP7 ADD MSTORE PUSH2 0xAD4 DUP4 DUP3 DUP5 PUSH2 0xA12 JUMP JUMPDEST SWAP3 POP POP POP PUSH1 0x80 DUP5 ADD CALLDATALOAD PUSH1 0xA0 DUP5 ADD MSTORE PUSH1 0xA0 DUP5 ADD CALLDATALOAD PUSH1 0xC0 DUP5 ADD MSTORE DUP1 SWAP2 POP POP SWAP3 SWAP2 POP POP JUMP JUMPDEST PUSH1 0x0 PUSH1 0x1 DUP1 PUSH1 0xA0 SHL SUB DUP1 DUP9 AND DUP4 MSTORE PUSH1 0x20 DUP2 DUP9 AND DUP2 DUP6 ADD MSTORE DUP7 PUSH1 0x40 DUP6 ADD MSTORE PUSH1 0xA0 PUSH1 0x60 DUP6 ADD MSTORE DUP6 MLOAD SWAP2 POP DUP2 PUSH1 0xA0 DUP6 ADD MSTORE PUSH1 0x0 JUMPDEST DUP3 DUP2 LT ISZERO PUSH2 0xB43 JUMPI DUP7 DUP2 ADD DUP3 ADD MLOAD DUP6 DUP3 ADD PUSH1 0xC0 ADD MSTORE DUP2 ADD PUSH2 0xB27 JUMP JUMPDEST POP POP PUSH1 0x0 PUSH1 0xC0 DUP3 DUP6 ADD ADD MSTORE PUSH1 0xC0 PUSH1 0x1F NOT PUSH1 0x1F DUP4 ADD AND DUP5 ADD ADD SWAP2 POP POP PUSH2 0x5D0 PUSH1 0x80 DUP4 ADD DUP5 PUSH2 0xFFFF AND SWAP1 MSTORE JUMP JUMPDEST PUSH4 0x4E487B71 PUSH1 0xE0 SHL PUSH1 0x0 MSTORE PUSH1 0x41 PUSH1 0x4 MSTORE PUSH1 0x24 PUSH1 0x0 REVERT JUMPDEST PUSH1 0x40 MLOAD PUSH1 0xC0 DUP2 ADD PUSH8 0xFFFFFFFFFFFFFFFF DUP2 GT DUP3 DUP3 LT OR ISZERO PUSH2 0xBA7 JUMPI PUSH2 0xBA7 PUSH2 0xB6E JUMP JUMPDEST PUSH1 0x40 MSTORE SWAP1 JUMP JUMPDEST PUSH1 0x40 MLOAD PUSH1 0x1F DUP3 ADD PUSH1 0x1F NOT AND DUP2 ADD PUSH8 0xFFFFFFFFFFFFFFFF DUP2 GT DUP3 DUP3 LT OR ISZERO PUSH2 0xBD6 JUMPI PUSH2 0xBD6 PUSH2 0xB6E JUMP JUMPDEST PUSH1 0x40 MSTORE SWAP2 SWAP1 POP JUMP JUMPDEST PUSH1 0x0 PUSH8 0xFFFFFFFFFFFFFFFF DUP3 GT ISZERO PUSH2 0xBF8 JUMPI PUSH2 0xBF8 PUSH2 0xB6E JUMP JUMPDEST POP PUSH1 0x5 SHL PUSH1 0x20 ADD SWAP1 JUMP JUMPDEST PUSH1 0x0 DUP3 PUSH1 0x1F DUP4 ADD SLT PUSH2 0xC13 JUMPI PUSH1 0x0 DUP1 REVERT JUMPDEST DUP2 CALLDATALOAD PUSH1 0x20 PUSH2 0xC28 PUSH2 0xC23 DUP4 PUSH2 0xBDE JUMP JUMPDEST PUSH2 0xBAD JUMP JUMPDEST DUP3 DUP2 MSTORE PUSH1 0x5 SWAP3 SWAP1 SWAP3 SHL DUP5 ADD DUP2 ADD SWAP2 DUP2 DUP2 ADD SWAP1 DUP7 DUP5 GT ISZERO PUSH2 0xC47 JUMPI PUSH1 0x0 DUP1 REVERT JUMPDEST DUP3 DUP7 ADD JUMPDEST DUP5 DUP2 LT ISZERO PUSH2 0xC69 JUMPI PUSH2 0xC5C DUP2 PUSH2 0x84D JUMP JUMPDEST DUP4 MSTORE SWAP2 DUP4 ADD SWAP2 DUP4 ADD PUSH2 0xC4B JUMP JUMPDEST POP SWAP7 SWAP6 POP POP POP POP POP POP JUMP JUMPDEST PUSH1 0x0 PUSH1 0x20 DUP3 DUP5 SUB SLT ISZERO PUSH2 0xC86 JUMPI PUSH1 0x0 DUP1 REVERT JUMPDEST DUP2 CALLDATALOAD PUSH8 0xFFFFFFFFFFFFFFFF DUP1 DUP3 GT ISZERO PUSH2 0xC9E JUMPI PUSH1 0x0 DUP1 REVERT JUMPDEST SWAP1 DUP4 ADD SWAP1 PUSH1 0xC0 DUP3 DUP7 SUB SLT ISZERO PUSH2 0xCB2 JUMPI PUSH1 0x0 DUP1 REVERT JUMPDEST PUSH2 0xCBA PUSH2 0xB84 JUMP JUMPDEST PUSH2 0xCC3 DUP4 PUSH2 0x84D JUMP JUMPDEST DUP2 MSTORE PUSH2 0xCD1 PUSH1 0x20 DUP5 ADD PUSH2 0x84D JUMP JUMPDEST PUSH1 0x20 DUP3 ADD MSTORE PUSH1 0x40 DUP4 ADD CALLDATALOAD DUP3 DUP2 GT ISZERO PUSH2 0xCE8 JUMPI PUSH1 0x0 DUP1 REVERT JUMPDEST PUSH2 0xCF4 DUP8 DUP3 DUP7 ADD PUSH2 0xC02 JUMP JUMPDEST PUSH1 0x40 DUP4 ADD MSTORE POP PUSH1 0x60 DUP4 ADD CALLDATALOAD DUP3 DUP2 GT ISZERO PUSH2 0xD0C JUMPI PUSH1 0x0 DUP1 REVERT JUMPDEST PUSH2 0xD18 DUP8 DUP3 DUP7 ADD PUSH2 0xC02 JUMP JUMPDEST PUSH1 0x60 DUP4 ADD MSTORE POP PUSH1 0x80 DUP4 ADD CALLDATALOAD PUSH1 0x80 DUP3 ADD MSTORE PUSH1 0xA0 DUP4 ADD CALLDATALOAD PUSH1 0xA0 DUP3 ADD MSTORE DUP1 SWAP4 POP POP POP POP SWAP3 SWAP2 POP POP JUMP JUMPDEST PUSH1 0x0 PUSH1 0xA0 DUP3 ADD DUP8 DUP4 MSTORE PUSH1 0x20 DUP8 DUP2 DUP6 ADD MSTORE PUSH1 0xA0 PUSH1 0x40 DUP6 ADD MSTORE DUP2 DUP8 MLOAD DUP1 DUP5 MSTORE PUSH1 0xC0 DUP7 ADD SWAP2 POP DUP3 DUP10 ADD SWAP4 POP PUSH1 0x0 JUMPDEST DUP2 DUP2 LT ISZERO PUSH2 0xD8E JUMPI DUP5 MLOAD PUSH1 0x1 PUSH1 0x1 PUSH1 0xA0 SHL SUB AND DUP4 MSTORE SWAP4 DUP4 ADD SWAP4 SWAP2 DUP4 ADD SWAP2 PUSH1 0x1 ADD PUSH2 0xD69 JUMP JUMPDEST POP POP PUSH1 0x1 PUSH1 0x1 PUSH1 0xA0 SHL SUB SWAP7 SWAP1 SWAP7 AND PUSH1 0x60 DUP6 ADD MSTORE POP POP POP PUSH1 0x80 ADD MSTORE SWAP4 SWAP3 POP POP POP JUMP JUMPDEST PUSH1 0x0 PUSH1 0x20 DUP1 DUP4 DUP6 SUB SLT ISZERO PUSH2 0xDC2 JUMPI PUSH1 0x0 DUP1 REVERT JUMPDEST DUP3 MLOAD PUSH8 0xFFFFFFFFFFFFFFFF DUP2 GT ISZERO PUSH2 0xDD9 JUMPI PUSH1 0x0 DUP1 REVERT JUMPDEST DUP4 ADD PUSH1 0x1F DUP2 ADD DUP6 SGT PUSH2 0xDEA JUMPI PUSH1 0x0 DUP1 REVERT JUMPDEST DUP1 MLOAD PUSH2 0xDF8 PUSH2 0xC23 DUP3 PUSH2 0xBDE JUMP JUMPDEST DUP2 DUP2 MSTORE PUSH1 0x5 SWAP2 SWAP1 SWAP2 SHL DUP3 ADD DUP4 ADD SWAP1 DUP4 DUP2 ADD SWAP1 DUP8 DUP4 GT ISZERO PUSH2 0xE17 JUMPI PUSH1 0x0 DUP1 REVERT JUMPDEST SWAP3 DUP5 ADD SWAP3 JUMPDEST DUP3 DUP5 LT ISZERO PUSH2 0xE35 JUMPI DUP4 MLOAD DUP3 MSTORE SWAP3 DUP5 ADD SWAP3 SWAP1 DUP5 ADD SWAP1 PUSH2 0xE1C JUMP JUMPDEST SWAP8 SWAP7 POP POP POP POP POP POP POP JUMP JUMPDEST PUSH4 0x4E487B71 PUSH1 0xE0 SHL PUSH1 0x0 MSTORE PUSH1 0x11 PUSH1 0x4 MSTORE PUSH1 0x24 PUSH1 0x0 REVERT JUMPDEST DUP2 DUP2 SUB DUP2 DUP2 GT ISZERO PUSH2 0xE69 JUMPI PUSH2 0xE69 PUSH2 0xE40 JUMP JUMPDEST SWAP3 SWAP2 POP POP JUMP JUMPDEST PUSH4 0x4E487B71 PUSH1 0xE0 SHL PUSH1 0x0 MSTORE PUSH1 0x32 PUSH1 0x4 MSTORE PUSH1 0x24 PUSH1 0x0 REVERT JUMPDEST DUP1 DUP3 ADD DUP1 DUP3 GT ISZERO PUSH2 0xE69 JUMPI PUSH2 0xE69 PUSH2 0xE40 JUMP JUMPDEST PUSH1 0x0 PUSH1 0x20 DUP3 DUP5 SUB SLT ISZERO PUSH2 0xEAA JUMPI PUSH1 0x0 DUP1 REVERT JUMPDEST DUP2 MLOAD DUP1 ISZERO ISZERO DUP2 EQ PUSH2 0x988 JUMPI PUSH1 0x0 DUP1 REVERT JUMPDEST PUSH1 0x0 PUSH1 0x20 DUP3 DUP5 SUB SLT ISZERO PUSH2 0xECC JUMPI PUSH1 0x0 DUP1 REVERT JUMPDEST POP MLOAD SWAP2 SWAP1 POP JUMP INVALID LOG2 PUSH5 0x6970667358 0x22 SLT KECCAK256 0xA7 SELFDESTRUCT 0x1E SWAP4 0x1F 0x28 0xCF DUP10 LOG2 DUP1 0x2B EQ ADDRESS SWAP16 0xE7 SHL 0xE EXTCODECOPY 0x2D 0xAB 0xD4 PUSH18 0x2A23A0D30B3DB0220E0E64736F6C63430008 EQ STOP CALLER "},"methodIdentifiers":{"ADDRESSES_PROVIDER()":"0542975c","POOL()":"7535d246","executeOperation(address,uint256,uint256,address,bytes)":"1b11d0ff","owner()":"8da5cb5b","requestFlashLoan(address,uint256,(address,address,address[],address[],uint256,uint256))":"10c36b5e","setAllowances(address,address)":"d00e883a","withdraw(address)":"51cff8d9"}}}}}