{
  "_format": "hh-sol-artifact-1",
  "contractName": "ZablonFlashBot",
  "sourceName": "contracts/ZablonFlashBot.sol",
  "abi": [
    {
      "inputs": [],
      "stateMutability": "nonpayable",
      "type": "constructor"
    },
    {
      "inputs": [],
      "name": "POOL",
      "outputs": [
        {
          "internalType": "contract IAavePool",
          "name": "",
          "type": "address"
        }
      ],
      "stateMutability": "view",
      "type": "function"
    },
    {
      "inputs": [
        {
          "internalType": "address",
          "name": "asset",
          "type": "address"
        },
        {
          "internalType": "uint256",
          "name": "amount",
          "type": "uint256"
        },
        {
          "internalType": "uint256",
          "name": "premium",
          "type": "uint256"
        },
        {
          "internalType": "address",
          "name": "initiator",
          "type": "address"
        },
        {
          "internalType": "bytes",
          "name": "params",
          "type": "bytes"
        }
      ],
      "name": "executeOperation",
      "outputs": [
        {
          "internalType": "bool",
          "name": "",
          "type": "bool"
        }
      ],
      "stateMutability": "nonpayable",
      "type": "function"
    },
    {
      "inputs": [],
      "name": "owner",
      "outputs": [
        {
          "internalType": "address",
          "name": "",
          "type": "address"
        }
      ],
      "stateMutability": "view",
      "type": "function"
    },
    {
      "inputs": [
        {
          "internalType": "address",
          "name": "token",
          "type": "address"
        },
        {
          "internalType": "uint256",
          "name": "amount",
          "type": "uint256"
        },
        {
          "internalType": "bytes",
          "name": "params",
          "type": "bytes"
        }
      ],
      "name": "requestFlashLoan",
      "outputs": [],
      "stateMutability": "nonpayable",
      "type": "function"
    },
    {
      "inputs": [
        {
          "internalType": "address",
          "name": "token",
          "type": "address"
        },
        {
          "internalType": "address",
          "name": "spender",
          "type": "address"
        }
      ],
      "name": "setAllowances",
      "outputs": [],
      "stateMutability": "nonpayable",
      "type": "function"
    },
    {
      "inputs": [
        {
          "internalType": "address",
          "name": "token",
          "type": "address"
        }
      ],
      "name": "withdraw",
      "outputs": [],
      "stateMutability": "nonpayable",
      "type": "function"
    },
    {
      "stateMutability": "payable",
      "type": "receive"
    }
  ],
  "bytecode": "0x60a060405234801561001057600080fd5b5033608052608051610c3c6100536000396000818161012e015281816103c90152818161048b015281816104e301528181610555015261063e0152610c3c6000f3fe6080604052600436106100595760003560e01c80631b11d0ff146100655780635107d61e1461009a57806351cff8d9146100bc5780637535d246146100dc5780638da5cb5b1461011c578063d00e883a1461015057600080fd5b3661006057005b600080fd5b34801561007157600080fd5b50610085610080366004610752565b610170565b60405190151581526020015b60405180910390f35b3480156100a657600080fd5b506100ba6100b53660046107ce565b6103be565b005b3480156100c857600080fd5b506100ba6100d736600461082a565b610480565b3480156100e857600080fd5b5061010473794a61358d6845594f94dc1db02a252b5b4814ad81565b6040516001600160a01b039091168152602001610091565b34801561012857600080fd5b506101047f000000000000000000000000000000000000000000000000000000000000000081565b34801561015c57600080fd5b506100ba61016b36600461084e565b610633565b60008080808061018286880188610966565b93509350935093506000846001600160a01b03166338ed17398c60008630426040518663ffffffff1660e01b81526004016101c19594939291906109ef565b6000604051808303816000875af11580156101e0573d6000803e3d6000fd5b505050506040513d6000823e601f3d908101601f191682016040526102089190810190610a60565b90506000846001600160a01b03166338ed1739836001855161022a9190610b07565b8151811061023a5761023a610b20565b602002602001015160008630426040518663ffffffff1660e01b81526004016102679594939291906109ef565b6000604051808303816000875af1158015610286573d6000803e3d6000fd5b505050506040513d6000823e601f3d908101601f191682016040526102ae9190810190610a60565b905060006102bc8c8e610b36565b90508082600184516102ce9190610b07565b815181106102de576102de610b20565b6020026020010151116103245760405162461bcd60e51b8152602060048201526009602482015268139bc8141c9bd99a5d60ba1b60448201526064015b60405180910390fd5b60405163095ea7b360e01b815273794a61358d6845594f94dc1db02a252b5b4814ad6004820152602481018290526001600160a01b038f169063095ea7b3906044016020604051808303816000875af1158015610385573d6000803e3d6000fd5b505050506040513d601f19601f820116820180604052508101906103a99190610b49565b5060019e9d5050505050505050505050505050565b336001600160a01b037f000000000000000000000000000000000000000000000000000000000000000016146104065760405162461bcd60e51b815260040161031b90610b6b565b6040516310ac2ddf60e21b815273794a61358d6845594f94dc1db02a252b5b4814ad906342b0b77c906104489030908890889088908890600090600401610b8e565b600060405180830381600087803b15801561046257600080fd5b505af1158015610476573d6000803e3d6000fd5b5050505050505050565b336001600160a01b037f000000000000000000000000000000000000000000000000000000000000000016146104c85760405162461bcd60e51b815260040161031b90610b6b565b6001600160a01b03811661052f576040516001600160a01b037f000000000000000000000000000000000000000000000000000000000000000016904780156108fc02916000818181858888f1935050505015801561052b573d6000803e3d6000fd5b5050565b6040516370a0823160e01b81523060048201526001600160a01b0382169063a9059cbb907f00000000000000000000000000000000000000000000000000000000000000009083906370a0823190602401602060405180830381865afa15801561059d573d6000803e3d6000fd5b505050506040513d601f19601f820116820180604052508101906105c19190610bed565b6040516001600160e01b031960e085901b1681526001600160a01b03909216600483015260248201526044016020604051808303816000875af115801561060c573d6000803e3d6000fd5b505050506040513d601f19601f8201168201806040525081019061052b9190610b49565b50565b336001600160a01b037f0000000000000000000000000000000000000000000000000000000000000000161461067b5760405162461bcd60e51b815260040161031b90610b6b565b60405163095ea7b360e01b81526001600160a01b038281166004830152600019602483015283169063095ea7b3906044016020604051808303816000875af11580156106cb573d6000803e3d6000fd5b505050506040513d601f19601f820116820180604052508101906106ef9190610b49565b505050565b6001600160a01b038116811461063057600080fd5b60008083601f84011261071b57600080fd5b50813567ffffffffffffffff81111561073357600080fd5b60208301915083602082850101111561074b57600080fd5b9250929050565b60008060008060008060a0878903121561076b57600080fd5b8635610776816106f4565b955060208701359450604087013593506060870135610794816106f4565b9250608087013567ffffffffffffffff8111156107b057600080fd5b6107bc89828a01610709565b979a9699509497509295939492505050565b600080600080606085870312156107e457600080fd5b84356107ef816106f4565b935060208501359250604085013567ffffffffffffffff81111561081257600080fd5b61081e87828801610709565b95989497509550505050565b60006020828403121561083c57600080fd5b8135610847816106f4565b9392505050565b6000806040838503121561086157600080fd5b823561086c816106f4565b9150602083013561087c816106f4565b809150509250929050565b634e487b7160e01b600052604160045260246000fd5b604051601f8201601f1916810167ffffffffffffffff811182821017156108c6576108c6610887565b604052919050565b600067ffffffffffffffff8211156108e8576108e8610887565b5060051b60200190565b600082601f83011261090357600080fd5b81356020610918610913836108ce565b61089d565b82815260059290921b8401810191818101908684111561093757600080fd5b8286015b8481101561095b57803561094e816106f4565b835291830191830161093b565b509695505050505050565b6000806000806080858703121561097c57600080fd5b8435610987816106f4565b93506020850135610997816106f4565b9250604085013567ffffffffffffffff808211156109b457600080fd5b6109c0888389016108f2565b935060608701359150808211156109d657600080fd5b506109e3878288016108f2565b91505092959194509250565b600060a082018783526020878185015260a0604085015281875180845260c086019150828901935060005b81811015610a3f5784516001600160a01b031683529383019391830191600101610a1a565b50506001600160a01b03969096166060850152505050608001529392505050565b60006020808385031215610a7357600080fd5b825167ffffffffffffffff811115610a8a57600080fd5b8301601f81018513610a9b57600080fd5b8051610aa9610913826108ce565b81815260059190911b82018301908381019087831115610ac857600080fd5b928401925b82841015610ae657835182529284019290840190610acd565b979650505050505050565b634e487b7160e01b600052601160045260246000fd5b81810381811115610b1a57610b1a610af1565b92915050565b634e487b7160e01b600052603260045260246000fd5b80820180821115610b1a57610b1a610af1565b600060208284031215610b5b57600080fd5b8151801515811461084757600080fd5b6020808252600990820152682737ba1027bbb732b960b91b604082015260600190565b6001600160a01b038781168252861660208201526040810185905260a06060820181905281018390526000838560c0840137600060c0858401015260c0601f19601f860116830101905061ffff83166080830152979650505050505050565b600060208284031215610bff57600080fd5b505191905056fea2646970667358221220a7d37eabafe61d81ec03203def498290876348568a0b782bd4683caedba9371b64736f6c63430008140033",
  "linkReferences": {},
  "deployedLinkReferences": {}
}